{
  "contractName": "LandContract",
  "abi": [
    {
      "inputs": [],
      "payable": false,
      "stateMutability": "nonpayable",
      "type": "constructor"
    },
    {
      "anonymous": false,
      "inputs": [
        {
          "indexed": false,
          "internalType": "uint256",
          "name": "landID",
          "type": "uint256"
        },
        {
          "indexed": false,
          "internalType": "string",
          "name": "location",
          "type": "string"
        },
        {
          "indexed": false,
          "internalType": "uint256",
          "name": "value",
          "type": "uint256"
        },
        {
          "indexed": false,
          "internalType": "address payable",
          "name": "owner",
          "type": "address"
        },
        {
          "indexed": false,
          "internalType": "bool",
          "name": "forSale",
          "type": "bool"
        }
      ],
      "name": "Add",
      "type": "event"
    },
    {
      "anonymous": false,
      "inputs": [
        {
          "indexed": false,
          "internalType": "uint256",
          "name": "landID",
          "type": "uint256"
        },
        {
          "indexed": false,
          "internalType": "string",
          "name": "location",
          "type": "string"
        },
        {
          "indexed": false,
          "internalType": "uint256",
          "name": "value",
          "type": "uint256"
        },
        {
          "indexed": false,
          "internalType": "address payable",
          "name": "owner",
          "type": "address"
        },
        {
          "indexed": false,
          "internalType": "bool",
          "name": "forSale",
          "type": "bool"
        }
      ],
      "name": "List",
      "type": "event"
    },
    {
      "anonymous": false,
      "inputs": [
        {
          "indexed": false,
          "internalType": "uint256",
          "name": "landID",
          "type": "uint256"
        },
        {
          "indexed": false,
          "internalType": "string",
          "name": "location",
          "type": "string"
        },
        {
          "indexed": false,
          "internalType": "uint256",
          "name": "value",
          "type": "uint256"
        },
        {
          "indexed": false,
          "internalType": "address payable",
          "name": "owner",
          "type": "address"
        },
        {
          "indexed": false,
          "internalType": "bool",
          "name": "forSale",
          "type": "bool"
        }
      ],
      "name": "Transfer",
      "type": "event"
    },
    {
      "constant": true,
      "inputs": [],
      "name": "landCount",
      "outputs": [
        {
          "internalType": "uint256",
          "name": "",
          "type": "uint256"
        }
      ],
      "payable": false,
      "stateMutability": "view",
      "type": "function"
    },
    {
      "constant": true,
      "inputs": [
        {
          "internalType": "uint256",
          "name": "",
          "type": "uint256"
        }
      ],
      "name": "lands",
      "outputs": [
        {
          "internalType": "uint256",
          "name": "landID",
          "type": "uint256"
        },
        {
          "internalType": "string",
          "name": "location",
          "type": "string"
        },
        {
          "internalType": "string",
          "name": "image",
          "type": "string"
        },
        {
          "internalType": "uint256",
          "name": "value",
          "type": "uint256"
        },
        {
          "internalType": "address payable",
          "name": "owner",
          "type": "address"
        },
        {
          "internalType": "bool",
          "name": "forSale",
          "type": "bool"
        }
      ],
      "payable": false,
      "stateMutability": "view",
      "type": "function"
    },
    {
      "constant": true,
      "inputs": [],
      "name": "name",
      "outputs": [
        {
          "internalType": "string",
          "name": "",
          "type": "string"
        }
      ],
      "payable": false,
      "stateMutability": "view",
      "type": "function"
    },
    {
      "constant": true,
      "inputs": [],
      "name": "owner",
      "outputs": [
        {
          "internalType": "address",
          "name": "",
          "type": "address"
        }
      ],
      "payable": false,
      "stateMutability": "view",
      "type": "function"
    },
    {
      "constant": false,
      "inputs": [
        {
          "internalType": "string",
          "name": "_location",
          "type": "string"
        },
        {
          "internalType": "string",
          "name": "_image",
          "type": "string"
        },
        {
          "internalType": "uint256",
          "name": "_value",
          "type": "uint256"
        }
      ],
      "name": "addLand",
      "outputs": [],
      "payable": false,
      "stateMutability": "nonpayable",
      "type": "function"
    },
    {
      "constant": false,
      "inputs": [
        {
          "internalType": "uint256",
          "name": "_id",
          "type": "uint256"
        }
      ],
      "name": "buyLand",
      "outputs": [],
      "payable": true,
      "stateMutability": "payable",
      "type": "function"
    },
    {
      "constant": false,
      "inputs": [
        {
          "internalType": "uint256",
          "name": "_id",
          "type": "uint256"
        },
        {
          "internalType": "uint256",
          "name": "_value",
          "type": "uint256"
        }
      ],
      "name": "listLand",
      "outputs": [],
      "payable": true,
      "stateMutability": "payable",
      "type": "function"
    }
  ],
  "bytecode": "0x608060405260006002553480156200001657600080fd5b506040518060400160405280600e81526020017f457468657265756d20486f6d65730000000000000000000000000000000000008152506000908051906020019062000064929190620000ac565b5033600160006101000a81548173ffffffffffffffffffffffffffffffffffffffff021916908373ffffffffffffffffffffffffffffffffffffffff1602179055506200015b565b828054600181600116156101000203166002900490600052602060002090601f016020900481019282601f10620000ef57805160ff191683800117855562000120565b8280016001018555821562000120579182015b828111156200011f57825182559160200191906001019062000102565b5b5090506200012f919062000133565b5090565b6200015891905b80821115620001545760008160009055506001016200013a565b5090565b90565b6117a4806200016b6000396000f3fe6080604052600436106100705760003560e01c8063ced395581161004e578063ced39558146102c5578063d7bce658146102f3578063e261f1e51461031e578063f35fb2091461048a57610070565b806306fdde03146100755780630c73f23d146101055780638da5cb5b1461026e575b600080fd5b34801561008157600080fd5b5061008a6104c2565b6040518080602001828103825283818151815260200191508051906020019080838360005b838110156100ca5780820151818401526020810190506100af565b50505050905090810190601f1680156100f75780820380516001836020036101000a031916815260200191505b509250505060405180910390f35b34801561011157600080fd5b5061026c6004803603606081101561012857600080fd5b810190808035906020019064010000000081111561014557600080fd5b82018360208201111561015757600080fd5b8035906020019184600183028401116401000000008311171561017957600080fd5b91908080601f016020809104026020016040519081016040528093929190818152602001838380828437600081840152601f19601f820116905080830192505050505050509192919290803590602001906401000000008111156101dc57600080fd5b8201836020820111156101ee57600080fd5b8035906020019184600183028401116401000000008311171561021057600080fd5b91908080601f016020809104026020016040519081016040528093929190818152602001838380828437600081840152601f19601f82011690508083019250505050505050919291929080359060200190929190505050610560565b005b34801561027a57600080fd5b506102836108c2565b604051808273ffffffffffffffffffffffffffffffffffffffff1673ffffffffffffffffffffffffffffffffffffffff16815260200191505060405180910390f35b6102f1600480360360208110156102db57600080fd5b81019080803590602001909291905050506108e8565b005b3480156102ff57600080fd5b50610308610f60565b6040518082815260200191505060405180910390f35b34801561032a57600080fd5b506103576004803603602081101561034157600080fd5b8101908080359060200190929190505050610f66565b6040518087815260200180602001806020018681526020018573ffffffffffffffffffffffffffffffffffffffff1673ffffffffffffffffffffffffffffffffffffffff16815260200184151515158152602001838103835288818151815260200191508051906020019080838360005b838110156103e35780820151818401526020810190506103c8565b50505050905090810190601f1680156104105780820380516001836020036101000a031916815260200191505b50838103825287818151815260200191508051906020019080838360005b8381101561044957808201518184015260208101905061042e565b50505050905090810190601f1680156104765780820380516001836020036101000a031916815260200191505b509850505050505050505060405180910390f35b6104c0600480360360408110156104a057600080fd5b8101908080359060200190929190803590602001909291905050506110ff565b005b60008054600181600116156101000203166002900480601f0160208091040260200160405190810160405280929190818152602001828054600181600116156101000203166002900480156105585780601f1061052d57610100808354040283529160200191610558565b820191906000526020600020905b81548152906001019060200180831161053b57829003601f168201915b505050505081565b600160009054906101000a900473ffffffffffffffffffffffffffffffffffffffff1673ffffffffffffffffffffffffffffffffffffffff163373ffffffffffffffffffffffffffffffffffffffff16146105ba57600080fd5b6000835111610631576040517f08c379a00000000000000000000000000000000000000000000000000000000081526004018080602001828103825260188152602001807f4d75737420626520612076616c6964206c6f636174696f6e000000000000000081525060200191505060405180910390fd5b600081116106a7576040517f08c379a000000000000000000000000000000000000000000000000000000000815260040180806020018281038252600f8152602001807f4d75737420626520612076616c7565000000000000000000000000000000000081525060200191505060405180910390fd5b6002600081548092919060010191905055506040518060c0016040528060025481526020018481526020018381526020018281526020013373ffffffffffffffffffffffffffffffffffffffff1681526020016001151581525060036000600254815260200190815260200160002060008201518160000155602082015181600101908051906020019061073c92919061167c565b50604082015181600201908051906020019061075992919061167c565b506060820151816003015560808201518160040160006101000a81548173ffffffffffffffffffffffffffffffffffffffff021916908373ffffffffffffffffffffffffffffffffffffffff16021790555060a08201518160040160146101000a81548160ff0219169083151502179055509050507fb89ec84ff7a8e45184b005a44c7cc48d0e92b5f6b78a5f9d768757d697685412600254848333600160405180868152602001806020018581526020018473ffffffffffffffffffffffffffffffffffffffff1673ffffffffffffffffffffffffffffffffffffffff16815260200183151515158152602001828103825286818151815260200191508051906020019080838360005b8381101561087f578082015181840152602081019050610864565b50505050905090810190601f1680156108ac5780820380516001836020036101000a031916815260200191505b50965050505050505060405180910390a1505050565b600160009054906101000a900473ffffffffffffffffffffffffffffffffffffffff1681565b6108f06116fc565b600360008381526020019081526020016000206040518060c001604052908160008201548152602001600182018054600181600116156101000203166002900480601f0160208091040260200160405190810160405280929190818152602001828054600181600116156101000203166002900480156109b15780601f10610986576101008083540402835291602001916109b1565b820191906000526020600020905b81548152906001019060200180831161099457829003601f168201915b50505050508152602001600282018054600181600116156101000203166002900480601f016020809104026020016040519081016040528092919081815260200182805460018160011615610100020316600290048015610a535780601f10610a2857610100808354040283529160200191610a53565b820191906000526020600020905b815481529060010190602001808311610a3657829003601f168201915b50505050508152602001600382015481526020016004820160009054906101000a900473ffffffffffffffffffffffffffffffffffffffff1673ffffffffffffffffffffffffffffffffffffffff1673ffffffffffffffffffffffffffffffffffffffff1681526020016004820160149054906101000a900460ff161515151581525050905060008160800151905060008260000151118015610afc5750600254826000015111155b610b6e576040517f08c379a00000000000000000000000000000000000000000000000000000000081526004018080602001828103825260138152602001807f6c616e6420646f6573206e6f742065786973740000000000000000000000000081525060200191505060405180910390fd5b8160600151341015610be8576040517f08c379a00000000000000000000000000000000000000000000000000000000081526004018080602001828103825260108152602001807f4e6f7420656e6f7567682066756e64730000000000000000000000000000000081525060200191505060405180910390fd5b600115158260a00151151514610c66576040517f08c379a00000000000000000000000000000000000000000000000000000000081526004018080602001828103825260148152602001807f6c616e64206973206e6f7420666f722073616c6500000000000000000000000081525060200191505060405180910390fd5b3373ffffffffffffffffffffffffffffffffffffffff168173ffffffffffffffffffffffffffffffffffffffff161415610d08576040517f08c379a000000000000000000000000000000000000000000000000000000000815260040180806020018281038252601a8152602001807f62757965722063616e6e6f74206265206c616e64206f776e657200000000000081525060200191505060405180910390fd5b33826080019073ffffffffffffffffffffffffffffffffffffffff16908173ffffffffffffffffffffffffffffffffffffffff168152505060008260a00190151590811515815250508160036000858152602001908152602001600020600082015181600001556020820151816001019080519060200190610d8b92919061167c565b506040820151816002019080519060200190610da892919061167c565b506060820151816003015560808201518160040160006101000a81548173ffffffffffffffffffffffffffffffffffffffff021916908373ffffffffffffffffffffffffffffffffffffffff16021790555060a08201518160040160146101000a81548160ff0219169083151502179055509050508073ffffffffffffffffffffffffffffffffffffffff166108fc349081150290604051600060405180830381858888f19350505050158015610e63573d6000803e3d6000fd5b507ff6058d925aaac6fafc272442a7b5c5d8aac85c921100fd2e254e3ecf89f7ba316002548360200151846060015133600060405180868152602001806020018581526020018473ffffffffffffffffffffffffffffffffffffffff1673ffffffffffffffffffffffffffffffffffffffff16815260200183151515158152602001828103825286818151815260200191508051906020019080838360005b83811015610f1d578082015181840152602081019050610f02565b50505050905090810190601f168015610f4a5780820380516001836020036101000a031916815260200191505b50965050505050505060405180910390a1505050565b60025481565b6003602052806000526040600020600091509050806000015490806001018054600181600116156101000203166002900480601f0160208091040260200160405190810160405280929190818152602001828054600181600116156101000203166002900480156110185780601f10610fed57610100808354040283529160200191611018565b820191906000526020600020905b815481529060010190602001808311610ffb57829003601f168201915b505050505090806002018054600181600116156101000203166002900480601f0160208091040260200160405190810160405280929190818152602001828054600181600116156101000203166002900480156110b65780601f1061108b576101008083540402835291602001916110b6565b820191906000526020600020905b81548152906001019060200180831161109957829003601f168201915b5050505050908060030154908060040160009054906101000a900473ffffffffffffffffffffffffffffffffffffffff16908060040160149054906101000a900460ff16905086565b6111076116fc565b600360008481526020019081526020016000206040518060c001604052908160008201548152602001600182018054600181600116156101000203166002900480601f0160208091040260200160405190810160405280929190818152602001828054600181600116156101000203166002900480156111c85780601f1061119d576101008083540402835291602001916111c8565b820191906000526020600020905b8154815290600101906020018083116111ab57829003601f168201915b50505050508152602001600282018054600181600116156101000203166002900480601f01602080910402602001604051908101604052809291908181526020018280546001816001161561010002031660029004801561126a5780601f1061123f5761010080835404028352916020019161126a565b820191906000526020600020905b81548152906001019060200180831161124d57829003601f168201915b50505050508152602001600382015481526020016004820160009054906101000a900473ffffffffffffffffffffffffffffffffffffffff1673ffffffffffffffffffffffffffffffffffffffff1673ffffffffffffffffffffffffffffffffffffffff1681526020016004820160149054906101000a900460ff16151515158152505090506000816000015111801561130a5750600254816000015111155b61137c576040517f08c379a00000000000000000000000000000000000000000000000000000000081526004018080602001828103825260138152602001807f6c616e6420646f6573206e6f742065786973740000000000000000000000000081525060200191505060405180910390fd5b3373ffffffffffffffffffffffffffffffffffffffff16816080015173ffffffffffffffffffffffffffffffffffffffff1614611421576040517f08c379a000000000000000000000000000000000000000000000000000000000815260040180806020018281038252601a8152602001807f796f7520617265206e6f7420746865206c616e64206f776e657200000000000081525060200191505060405180910390fd5b600015158160a0015115151461149f576040517f08c379a00000000000000000000000000000000000000000000000000000000081526004018080602001828103825260168152602001807f6c616e6420697320616c7265616479206c69737465640000000000000000000081525060200191505060405180910390fd5b60018160a00190151590811515815250508181606001818152505080600360008581526020019081526020016000206000820151816000015560208201518160010190805190602001906114f492919061167c565b50604082015181600201908051906020019061151192919061167c565b506060820151816003015560808201518160040160006101000a81548173ffffffffffffffffffffffffffffffffffffffff021916908373ffffffffffffffffffffffffffffffffffffffff16021790555060a08201518160040160146101000a81548160ff0219169083151502179055509050507f860792ae13c1e1b4bfed2f0126e03c27cd34ceddf6b678ee73493c134c4a2e338382602001518433600160405180868152602001806020018581526020018473ffffffffffffffffffffffffffffffffffffffff1673ffffffffffffffffffffffffffffffffffffffff16815260200183151515158152602001828103825286818151815260200191508051906020019080838360005b8381101561163957808201518184015260208101905061161e565b50505050905090810190601f1680156116665780820380516001836020036101000a031916815260200191505b50965050505050505060405180910390a1505050565b828054600181600116156101000203166002900490600052602060002090601f016020900481019282601f106116bd57805160ff19168380011785556116eb565b828001600101855582156116eb579182015b828111156116ea5782518255916020019190600101906116cf565b5b5090506116f8919061174a565b5090565b6040518060c0016040528060008152602001606081526020016060815260200160008152602001600073ffffffffffffffffffffffffffffffffffffffff1681526020016000151581525090565b61176c91905b80821115611768576000816000905550600101611750565b5090565b9056fea265627a7a72315820435363f0de582a626dcb74b7157be12dfd7bdc1a88dcb906da58811f764b236764736f6c63430005100032",
  "source": "pragma solidity ^0.5.0;\n\ncontract LandContract {\n\n  string public name;\n  address public owner;\n  uint public landCount = 0;\n\n  mapping(uint => Land) public lands;\n\n  struct Land {\n    uint landID;\n    string location;\n    string image;\n    uint value;\n    address payable owner;\n    bool forSale;\n  }\n\n  constructor() public {\n    name = \"Ethereum Homes\";\n    owner = msg.sender;\n  }\n  \n  event Add(\n    uint landID, \n    string location, \n    uint value, \n    address payable owner, \n    bool forSale\n  );\n\n  event Transfer(\n    uint landID, \n    string location, \n    uint value, \n    address payable owner, \n    bool forSale\n  );\n\n  event List(\n    uint landID, \n    string location, \n    uint value, \n    address payable owner, \n    bool forSale\n  );\n    \n  modifier isOwner {\n    require(msg.sender == owner);\n    _;\n  } \n\n  function addLand(string memory _location, string memory _image, uint _value) public isOwner {\n    // Require a valid location\n    require(bytes(_location).length > 0, 'Must be a valid location');\n    // Requie a valid value\n    require(_value > 0, 'Must be a value');\n    // Increment land count\n    landCount++;\n    // Add land\n    lands[landCount] = Land(landCount, _location, _image, _value, msg.sender, true);\n    // Trigger an event\n    emit Add(landCount, _location, _value, msg.sender, true);\n  }\n\n  function buyLand(uint _id) public payable {\n    // Fetch the land\n    Land memory _land = lands[_id];\n    // Fetch the owner\n    address payable _landHolder = _land.owner;\n    // Make sure the Land is valid\n    require(_land.landID > 0 && _land.landID <= landCount, 'land does not exist');\n    // Require that there is enough Ether in the transaction\n    require(msg.value >= _land.value, 'Not enough funds');\n    // Require land is for sale\n    require(_land.forSale == true, 'land is not for sale');\n    // Require buyer is not landHolder\n    require(_landHolder != msg.sender, 'buyer cannot be land owner');\n    // Transfer ownership to buyer\n    _land.owner = msg.sender;\n    // Mark as purchased\n    _land.forSale = false;\n    // Update land\n    lands[_id] = _land;\n    // Pay landHolder\n    address(_landHolder).transfer(msg.value);\n    // Trigger an event\n    emit Transfer(landCount, _land.location, _land.value, msg.sender, false);\n  }\n  \n  function listLand(uint _id, uint _value) public payable {\n    // Fetch the land\n    Land memory _land = lands[_id];\n    // Make sure the Land is valid\n    require(_land.landID > 0 && _land.landID <= landCount, 'land does not exist');\n    // Require that there is enough Ether in the transaction\n    require(_land.owner == msg.sender, 'you are not the land owner');\n    // Require land is not listed\n    require(_land.forSale == false, 'land is already listed');\n    // Mark as listed\n    _land.forSale = true;\n    // Update price\n    _land.value = _value;\n    // Update land\n    lands[_id] = _land;\n    // Trigger an event\n    emit List(_id, _land.location, _value, msg.sender, true);\n  }\n}\n    ",
  "sourcePath": "D:\\personal\\Blockchain\\Projects\\Real-estate\\contracts\\LandContract.sol",
  "compiler": {
    "name": "solc",
    "version": "0.5.16+commit.9c3226ce.Emscripten.clang"
  },
  "schemaVersion": "3.4.3",
  "updatedAt": "2021-10-28T08:13:49.550Z",
  "networkType": "ethereum",
  "devdoc": {
    "methods": {}
  },
  "userdoc": {
    "methods": {}
  }
}